:100000000C943E000C946F000C945B000C945D000B
:100010000C945B000C945B000C945B000C945B00F4
:100020000C945B000C945B000C945B000C945B00E4
:100030000C945B000C945B000C945B000C945B00D4
:100040000C945B000C945B000C945B000C945B00C4
:100050000C945B000C945B000C945B000C945B00B4
:100060000C945B000C945B000C945B000C945B00A4
:100070000C945B000C945B000C945B0011241FBE7D
:10008000CFEFD8E0DEBFCDBF11E0A0E0B1E0E0E40B
:10009000FEE102C005900D92A230B107D9F721E030
:1000A000A2E0B1E001C01D92A430B207E1F70E94C6
:1000B000620C0C94140F0C9400008F938FB78F93E5
:1000C0009F938FE59AEE0197F1F700C0000081E061
:1000D000809302019F918F918FBF8F9118958F937D
:1000E0008FB78F939F938FE59AEE0197F1F700C03A
:1000F000000081E0809303019F918F918FBF8F91CA
:1001000018950F931F93CF93DF93EC010E948B0AF6
:100110008E010E5F1F4F61E070E0C8010E9436063D
:1001200070E060E0CE0142960E942F0961E070E02D
:10013000CE014D960E942F09B801CE0188960E94EB
:10014000AB0721E040E061E070E0CE01C4960E9480
:100150003808CE01CA960E94030960E0CE01CB9612
:100160000E94530A65E0CE01CD960E946A0A67E0BC
:10017000CE01CF960E946A0AFE01EF5BFF4F11820B
:10018000108232961082319610823196108231960A
:10019000118210823296108231961082319610822E
:1001A00031961082118212821382349680E090E0A0
:1001B000A2E8B2E480839183A283B383349680E083
:1001C00090E0A0E2B2E480839183A283B38334966B
:1001D00080E090E0A6E1B3E480839183A283B383BF
:1001E000349680EA808331968EE1808331968AE06E
:1001F0008083319684EB8083C15ADF4F8EEF9FEF6F
:1002000099838883DF91CF911F910F9108950F9368
:100210001F93CF93DF93EC0101960E94300C8E0167
:100220000E5F1F4F61E070E0C8010E94980664E015
:1002300070E0C8010E94D80661E070E0CE014296ED
:100240000E94780961E070E0CE014D960E94780925
:10025000FE01EA5BFF4F11821082CE01CD960E9413
:10026000780A182FCE01CF960E94780AC55ADF4F20
:10027000412F4451550B840F952F911D97FD0196E9
:10028000959587958883DF91CF911F910F91089560
:100290000F931F93CF93DF93EC01CD960E94780AC2
:1002A0008E010C5B1F4F8451F8018083CE01CF96E5
:1002B0000E94780AFE01EB5BFF4F8083F80190817A
:1002C0004FEF50E0491B51099A01220F331F440F91
:1002D0002F3F310519F014F0492F4095FE01E75BDF
:1002E000FF4F40832FEF30E0281B3109A901440F55
:1002F000551F220F4F3F510519F014F0282F20955C
:10030000C65BDF4F2883DF91CF911F910F91089536
:10031000EF92FF920F931F93CF93DF9300D000D003
:1003200000D0CDB7DEB77C018C01085B1F4F81E0A8
:10033000D8018C93C7010E944801C701CB960E9447
:10034000610A282F30E050E040E029833A834B8354
:100350005C83CA01B9010E94F20DF701ED5AFF4F0B
:10036000208131814281538169837A838B839C838D
:1003700069817A818B819C810E94A20E1816ACF44F
:10038000A7014F5B5F4F82E090E0DA018D939C9371
:1003900026960FB6F894DEBF0FBECDBFDF91CF918A
:1003A0001F910F91FF90EF900895F701EC5BFF4FC5
:1003B000208177968081769790817D97821718F0BB
:1003C000891708F04DC0892F821B921710F4822FD5
:1003D000891BD701A45ABF4F3C91B701665B7F4F81
:1003E0008701075B1F4F381740F5921798F4DB0120
:1003F0001C92D8016C91CF0126960FB6F894DEBFFF
:100400000FBECDBFDF91CF911F910F91FF90EF9065
:100410000C942308D8011C92DB016C91CF01269625
:100420000FB6F894DEBF0FBECDBFDF91CF911F9105
:100430000F91FF90EF900C940E08DB014C91D801C6
:100440006C91CF0126960FB6F894DEBF0FBECDBFDC
:10045000DF91CF911F910F91FF90EF900C94600767
:10046000D8011C92CF0126960FB6F894DEBF0FBEBE
:10047000CDBFDF91CF911F910F91FF90EF900C9422
:10048000A6078F929F92AF92BF92DF92EF92FF9258
:100490000F931F93CF93DF9300D000D000D0CDB740
:1004A000DEB78D839E838D819E81CB960E94610AEB
:1004B000282F30E050E040E029833A834B835C836F
:1004C000CA01B9010E94F20D7B018C01ED81FE8110
:1004D000E95AFF4F20813181428153816983FA8239
:1004E0008B831C8369817A818B819C810E94A20EFF
:1004F00018160CF05EC09701A801ED81FE81E15B4A
:10050000FF4F60817181828193810E944F0D26E6A9
:1005100036E646E65FE369837A838B839C83698151
:100520007A818B819C810E94A70E4B015C01AB01FB
:10053000BC01ED81FE81E55BFF4F40835183628307
:100540007383ED81FE81E25AFF4FD080ED81FE8101
:10055000E75BFF4FD0828D2D90E0B0E0A0E0898373
:100560009A83AB83BC83BC01CD010E94F20D940140
:10057000A50169837A838B839C8369817A818B81CE
:100580009C810E94A70E69837A838B839C836981F7
:100590007A818B819C810E94C10D462FED81FE8165
:1005A000E65BFF4F60836D2D8D819E8188960E9452
:1005B0006007ED81FE81ED5AFF4F2081318142813C
:1005C0005381E982FA820B831C8369817A818B8152
:1005D0009C810E944A0D87FF1AC0AD81BE81AF5B2E
:1005E000BF4F83E090E08D939C9326960FB6F894CE
:1005F000DEBF0FBECDBFDF91CF911F910F91FF9056
:10060000EF90DF90BF90AF909F908F900895ED8115
:10061000FE81E15BFF4F80809180A280B380A501C5
:100620009401E982FA820B831C8369817A818B8130
:100630009C810E94A20E18160CF069C09701A801B7
:10064000C501B4010E944F0D26E636E646E65FE39B
:1006500069837A838B839C8369817A818B819C8176
:100660000E94A70E7B018C01ED81FE81E55BFF4FAF
:10067000AB01BC014083518362837383ED81FE81B2
:10068000E25AFF4FB080ED81FE81E75BFF4FB08201
:100690002B2D30E050E040E029833A834B835C838C
:1006A000CA01B9010E94F20D9701A80169837A83FA
:1006B0008B839C8369817A818B819C810E94A70EA8
:1006C00069837A838B839C8369817A818B819C8106
:1006D0000E94C10D462FED81FE81E65BFF4F6083D6
:1006E0006B2D8D819E81889626960FB6F894DEBF7D
:1006F0000FBECDBFDF91CF911F910F91FF90EF9073
:10070000DF90BF90AF909F908F900C946007A501F1
:100710009401E982FA820B831C8369817A818B813F
:100720009C810E944A0D87FF60CFA50194016981D9
:100730007A818B819C810E944F0D26E636E646E643
:100740005FE369837A838B839C8369817A818B8160
:100750009C810E94A70E7B018C01ED81FE81E55BEF
:10076000FF4FAB01BC014083518362837383ED81F2
:10077000FE81E25AFF4FB0808B2D90E0B0E0A0E008
:1007800089839A83AB83BC83BC01CD010E94F20DA7
:100790009701A80169837A838B839C8369817A811D
:1007A0008B819C810E94A70E69837A838B839C83B3
:1007B00069817A818B819C810E94C10DED81FE81CE
:1007C000E75BFF4F6083ED81FE81E65BFF4FB08208
:1007D0004B2D87CFCF92DF92EF92FF920F931F9313
:1007E000CF93DF93EC01FC01E85BFF4F10828C019B
:1007F0000A5B1F4FF80160817181CB0101969183E3
:1008000080836E01F9E4CF0ED11CA601CE010E94B7
:100810009C0A8FE097E20197F1F700C00000F80111
:1008200060817181CB010196918380837E01FAE41E
:10083000EF0EF11CA701CE010E949C0A8FE097E207
:100840000197F1F700C00000F60160810E51110917
:100850006F3FE1F4F70180818F3F39F561E070E08F
:10086000CE01C4960E947A08C8010E94A607CF5BF9
:10087000DF4F89E090E099838883DF91CF911F91CA
:100880000F91FF90EF90DF90CF90089561110DC010
:10089000F7016081C801DF91CF911F910F91FF9007
:1008A000EF90DF90CF900C940E08F7014081C801C3
:1008B00041110AC0DF91CF911F910F91FF90EF90EE
:1008C000DF90CF900C942308DF91CF911F910F916F
:1008D000FF90EF90DF90CF900C94600788960C9477
:1008E000A607FB0160814D960C942C0AFB016081E8
:1008F00042960C942C0ACB960C94610ACF960C94D9
:10090000780ACD960C94780AFC01EF5BFF4F80814A
:10091000918108958F5B9F4FFC01718360830895DF
:10092000885B9F4FFC016083089501960C94420CF4
:10093000EF92FF920F931F93CF93DF937B010EE013
:1009400010E0EC01E496B701CE010E947A082FEF87
:1009500080E792E0215080409040E1F700C0000025
:1009600063E070E0CE010E947A082FEF80E792E00A
:10097000215080409040E1F700C000000150110973
:1009800011F7DF91CF911F910F91FF90EF90089594
:10099000C4960C947A080F931F93CF93DF93EC01C6
:1009A0008C010A5B1F4FF801608171819B012E5FF2
:1009B0003F4F79968081918177972817390730F0DA
:1009C0001082DF91CF911F910F910895808188232C
:1009D000C1F3FE01E75BFF4F4081CB010196F801B7
:1009E00091838083CE010E94620B8FE097E2019792
:1009F000F1F700C00000FE01E65BFF4F4081F80107
:100A000060817181CB01019691838083CE010E9428
:100A1000620B8FE097E20197F1F700C00000D1CFA1
:100A2000EF92FF921F93CF93DF93EC01162F7C017F
:100A300086E4E80EF11CF701608171819B012E5F55
:100A40003F4F7996808191812817390700F5CB01B6
:100A50000196F70191838083412FCE010E94620BA2
:100A60008FE097E20197F1F700C00000F701608185
:100A70007181CB01019691838083412FCE010E9429
:100A8000620B8FE097E20197F1F700C00000DF9161
:100A9000CF911F91FF90EF9008956F927F928F9268
:100AA0009F92AF92BF92CF92DF92EF92FF920F93FD
:100AB0001F93CF93DF9300D000D000D0CDB7DEB727
:100AC0008C01FC01E85BFF4F10826FEF0E94100564
:100AD0001E821D82680124E3C20ED11C780138E217
:100AE000E30EF11C58014BE3A40EB11C38015FE486
:100AF000650E711C85E0882E912C61E070E0C601C6
:100B00000E947A088D819E814AE7853F91400CF4CE
:100B100066C08D819E818E3E92400CF058C046EE9C
:100B200060E5C7010E9460072D813E81263D364069
:100B30000CF064C08D819E81803D97400CF46CC0A8
:100B400046E664E6C7010E946007C5010E94610A8B
:100B5000282F30E050E040E029833A834B835C83C8
:100B6000CA01B9010E94F20DF30120813181428155
:100B7000538169837A838B839C8369817A818B819A
:100B80009C810E94A20E18160CF046C063E070E033
:100B9000C6010E947A08F801EF5BFF4F82E090E007
:100BA0009183808326960FB6F894DEBF0FBECDBF2B
:100BB000DF91CF911F910F91FF90EF90DF90CF9039
:100BC000BF90AF909F908F907F906F9008958D8190
:100BD0009E818F5E92408D3E924030F440E768E700
:100BE000C7010E946007A6CF8D819E818D3DE5E003
:100BF0009E070CF49FCF863D96404CF02D813E81A0
:100C0000213D37400CF096CF4CE56AE5E9CF46EE42
:100C100060E5C7010E9460078D819E81B4010E943A
:100C20001C0D892B59F470E060E0C6010E947A081F
:100C30008FEC97E00197F1F700C00000EFE6F7E1D5
:100C40003197F1F700C000002D813E812F5F3F4FAB
:100C50003E832D83283B3B4009F04FCF97CF8A5BE3
:100C60009F4F70E0FC01718360830895FC01CB010C
:100C70002FEF2587F8947787668761307105B9F083
:100C80006230710559F1892B39F516BC84E490E086
:100C90009583848385E490E09783868387E490E05E
:100CA0009183808388E490E0938382830CC01092C8
:100CB00085001092840080E890E09583848381E829
:100CC00090E09783868386E0818787E0828784E04F
:100CD000838785E084871086789408951092B20007
:100CE00080EB90E09583848381EB90E0978386830B
:100CF00083EB90E09183808384EB90E0D5CF0895DF
:100D0000FC0186859785019741F0A081B1816C93A4
:100D10000280F381E02D4083089570E07093890094
:100D20006093880050E050938B0040938A000895B0
:100D3000FC019B01F8946115710529F06130710582
:100D400079F078940895A481B5811C928685978561
:100D50000197B9F780918100886080938100F1CF7D
:100D6000A481B5814C91808502C0660F771F8A955A
:100D7000E2F7CB019285B90101C0660F9A95EAF7B7
:100D8000862B842B9185A90101C0440F9A95EAF71F
:100D9000842B9485A90101C0440F9A95EAF7842B0E
:100DA000938501C0220F9A95EAF7822B8C93C9CFC5
:100DB000FC01CB01F894268537852130310539F1C6
:100DC0002230310509F448C0232B49F46230710503
:100DD000C1F03CF4892B71F06130710579F07894A1
:100DE00008956330710581F064307105C1F785B5F0
:100DF000856002C085B5816085BDF1CF85B5826013
:100E0000FBCF85B58360F8CF85B58460F5CF6230C0
:100E10007105D1F04CF4892B89F061307105F9F638
:100E20008091810082600DC06330710589F064306B
:100E30007105A9F680918100856003C080918100D1
:100E4000816080938100CBCF809181008360F9CF56
:100E5000809181008460F5CF62307105E1F054F437
:100E6000892B99F06130710509F0B9CF8091B100FB
:100E700082600EC06330710591F06430710509F035
:100E8000AECF8091B100876003C08091B1008160D6
:100E90008093B100A4CF8091B1008460F9CF80919C
:100EA000B1008660F5CFFC01868597850895FC0129
:100EB000858508950895FC01808191810C948006B8
:100EC000CF93DF93EC010E945B07EC81FD814081B1
:100ED000888521E030E0B90102C0660F771F8A954E
:100EE000E2F7CB01998501C0220F9A95EAF7822B90
:100EF000809584238083DF91CF910895FC01438501
:100F000062850C946007FC01428563850C94600740
:100F1000CF93DF93EC01462F0E945B07EC81FD81AC
:100F20004081888521E030E0B90102C0660F771F5B
:100F30008A95E2F7CB01998501C0220F9A95EAF7CD
:100F4000822B842B8083DF91CF910895FC016285F1
:100F5000462F0C945B07CF93DF93EC01CB016883A2
:100F600099832FEF2A871B860E94530781309105B2
:100F7000F1F18230910509F449C0892B81F483E0B5
:100F80008E8384E08F8382E0888785E0898784E28E
:100F900090E09B838A8385E290E09D838C83EA8145
:100FA000FB8140818F8121E030E0B90102C0660FF2
:100FB000771F8A95E2F7CB019E81B90101C0660FC8
:100FC0009A95EAF7862B842B9885A90101C0440FD6
:100FD0009A95EAF7842B998501C0220F9A95EAF732
:100FE000822B8083CE01DF91CF910C94A60784E001
:100FF0008E8385E08F8386E0888783E089878AE215
:1010000090E09B838A838BE290E0C7CF86E08E835B
:1010100087E08F8385E0888784E0F0CFCF93DF93EC
:10102000EC01462F0E945B07EC81FD818081988551
:1010300021E030E001C0220F9A95EAF7822B8083ED
:10104000DF91CF910895CF93DF93EC01462F0E945B
:101050005B07EC81FD818081998521E030E001C052
:10106000220F9A95EAF7822B8083DF91CF91089522
:10107000FC01CB01448325836230710599F1C4F4EE
:10108000892B01F16130710531F10190F081E02D82
:10109000308161E070E0CB0101C0880F4A95EAF72A
:1010A00001C0660F2A95EAF7862B832B808308956B
:1010B0006330710551F78AE290E0918380838BE27F
:1010C00090E006C081E290E09183808382E290E02C
:1010D00093838283DACF84E290E09183808385E2F8
:1010E00090E0F6CF87E290E09183808388E290E001
:1010F000EFCF0895CF93DF93FC019B01A281B381D1
:101100006C91448181E090E0EC0102C0CC0FDD1FC6
:101110004A95E2F7AE015581EC0101C0CC0F5A951A
:10112000EAF74C2B409546234C932230310571F160
:101130004CF421153105A1F021303105E1F0DF91AA
:10114000CF91089523303105D1F7A281B3812C913D
:10115000358101C0880F3A95EAF78095822309C04E
:10116000A281B3812C91358101C0880F3A95EAF7AD
:10117000822B8C93E4CFA281B3818C91948101C0A6
:10118000220F9A95EAF7282B2C93D9CFA281B3810D
:101190002C913581AC0101C0440F3A95EAF7242B1C
:1011A0002C93A9EFB0E01197F1F700C00000A281E5
:1011B000B3812C91348101C0880F3A95EAF7822BD4
:1011C0008C93C9EFD0E02197F1F700C00000B7CFB2
:1011D000CF93DF93D82FC92F0E947A0889EF90E030
:1011E0000197F1F700C0000063E070E08D2F9C2FA5
:1011F0000E947A0881EE94E00197F1F700C00000A8
:10120000DF91CF91089510927C0086E880937A0058
:10121000089510927A00089580917C00807E8093DA
:101220007C0080917C006770682B60937C008091CB
:101230007A00806480937A0080917A0084FFFCCFEA
:1012400080917A00806180937A002091780080916B
:10125000790090E0982F8827820F911D0895FC0156
:10126000CB01728761876130710589F06230710549
:10127000C1F0892B59F482E0858324E230E0328387
:101280002183868384E0838385E0848308951582A7
:101290008AE290E09283818382E08683138281E0F8
:1012A000F4CF81E085838AE290E09283818383E0BA
:1012B000868392E09383E9CFFC01CB01F8946783A6
:1012C00090870E9453078130910551F0823091053B
:1012D00059F0892B19F482E080936E007894089578
:1012E00082E080936F00FACF82E080937000F6CFA7
:1012F000FC01CB01F8946130710559F16230710540
:1013000009F440C0892B19F53681A181B2812C9155
:1013100081E090E0AC0102C0440F551F3A95E2F71E
:101320004095509524232C9335812DB3AC0101C0F9
:10133000440F3A95EAF7242B2DBB338120916900A5
:1013400001C0880F3A95EAF7822B80936900789460
:1013500008953681A181B2812C91AB0102C0440F66
:10136000551F3A95E2F74095509524232C933581EB
:101370002DB3AB0101C0440F3A95EAF7242B2DBBE6
:101380003481DCCF3681A181B2812C9181E090E063
:10139000AC0102C0440F551F3A95E2F740955095B5
:1013A00024232C9335812DB3AC0101C0440F3A9511
:1013B000EAF7242B2DBB4381348120916900BC01C5
:1013C00002C0660F771F4A95E2F701C0880F3A9571
:1013D000EAF7862BB9CFEF92FF920F931F93CF932B
:1013E000DF930F92CDB7DEB77C018B014983198261
:1013F000FC01878190850E945307019779F0F701DE
:10140000878190850E9457078017110638F4F701ED
:10141000878190850E945707082F10E0F701878188
:1014200090850E9453078130910571F082309105BB
:1014300081F0892B09F407BD0F90DF91CF911F91A7
:101440000F91FF90EF90089510938900009388000A
:10145000F3CF0093B300F0CFCF93DF930F92CDB7CC
:10146000DEB7FC016983108289818130D1F48185E6
:1014700092858130910589F08230910581F0892B28
:1014800009F4E29A998181E0911101C080E08083A2
:1014900019820F90DF91CF910895E09AF3CFE19AEE
:1014A000F1CF80E0F6CF1F93CF93DF93EC01162F9F
:1014B0000E9403091983DF91CF911F9108950C9425
:1014C0000909FC0161810E940C0996958795969502
:1014D000879508951F93CF93DF93EC01162F0E94F9
:1014E00003091983DF91CF911F9108950C94090985
:1014F000FC0161810E940C099695879596958795C8
:101500000895089580EA809300011092B90080E266
:101510008093B8000895FC0180E88083CF010C948B
:10152000820A982F9370891305C0880F806A809370
:10153000000108958FEF0895FA0194EA24E890934A
:10154000BC008091BC0087FFFCCF8091000180939C
:10155000BB002093BC008091BC0087FFFCCF809132
:10156000B900883161F784EA8093BC008091BC00A7
:1015700087FFFCCF809100018093BB0084E88093BB
:10158000BC008091BC0087FFFCCF7093BB0084E857
:101590008093BC008091BC0087FFFCCF6093BB00B0
:1015A00084E88093BC008091BC0087FFFCCF8091D1
:1015B000BC0087FFFCCF84EA8093BC008091BC0014
:1015C00087FFFCCF809100018F5F8093BB0084E890
:1015D0008093BC008091BC0087FFFCCF84E880939F
:1015E000BC008091BC0087FFFCCF8091BB00808352
:1015F00084E98093BC0080E0089594EA34E89093F5
:10160000BC008091BC0087FFFCCF809100018093DB
:10161000BB003093BC008091BC0087FFFCCF809161
:10162000B900883161F784EA8093BC008091BC00E6
:1016300087FFFCCF809100018093BB0084E88093FA
:10164000BC008091BC0087FFFCCF7093BB0084E896
:101650008093BC008091BC0087FFFCCF6093BB00EF
:1016600084E88093BC008091BC0087FFFCCF84EAB3
:101670008093BC008091BC0087FFFCCF809100016B
:101680008F5F8093BB0084E88093BC008091BC0096
:1016900087FFFCCF84EC222381F0213009F484E819
:1016A0008093BC009091BC0097FFFCCFFA01909111
:1016B000BB0091932150AF01EECF84E98093BC0031
:1016C00080E0089594EA24E89093BC008091BC00E7
:1016D00087FFFCCF809100018093BB002093BC006A
:1016E0008091BC0087FFFCCF8091B900883161F701
:1016F00084EA8093BC008091BC0087FFFCCF80917E
:1017000000018093BB0084E88093BC008091BC0002
:1017100087FFFCCF7093BB0084E88093BC0080916E
:10172000BC0087FFFCCF6093BB0084E88093BC00C3
:101730008091BC0087FFFCCF4093BB0084E880937E
:10174000BC008091BC0087FFFCCF84E98093BC0083
:1017500080E00895FB01260F372F311DDC018C91AD
:101760008150990B862B9F2B2817390718F09C0165
:101770002F5F3F4F822F8E1B24EA34E82093BC005A
:101780009091BC0097FFFCCF909100019093BB001B
:101790003093BC009091BC0097FFFCCF9091B900B2
:1017A000983161F794EA9093BC009091BC0097FF48
:1017B000FCCF909100019093BB0094E89093BC0003
:1017C0009091BC0097FFFCCFF093BB0094E89093FE
:1017D000BC009091BC0097FFFCCFE093BB0094E865
:1017E0009093BC009091BC0097FFFCCF982F24E809
:1017F000992369F0FA0131913093BB002093BC002A
:101800003091BC0037FFFCCF9150AF01F1CF94E98C
:101810009093BC000895DF92EF92FF920F931F9375
:10182000CF93DF93D82ED92F7B018A01C22F2C2F83
:10183000A801B7018D2D9D2F0E94AA0B282F30E003
:10184000E20EF31EC81B020F131FC111F0CF80E080
:10185000DF91CF911F910F91FF90EF90DF9008954E
:101860001092C5008FEC8093C4001092C000E1EC90
:10187000F0E0808188618083E2ECF0E08081866026
:10188000808308958091C00085FFFCCF6093C600DF
:1018900008958091C00087FFFCCF8091C600089515
:1018A0000F931F93CF93DF938C01EB016991662314
:1018B00021F0C8010E94420CF9CFDF91CF911F9116
:1018C0000F910895CDB7DEB7C156D1090FB6F89480
:1018D000DEBF0FBECDBF8E010F5F1F4FC8010E943C
:1018E0008100C8010E940701C8010E948404FC0114
:1018F0000A9788F5EA5EF04F0C94300D62E071E0D3
:10190000C8010E947604882341F01092020167E02A
:1019100070E0C8010E948A041EC063E071E0C80143
:101920000E9471048823B9F01092030161E070E015
:10193000F0CF61E070E0C8010E94980462E070E0BE
:10194000C8010E948A0461E0C8010E94900403C09B
:10195000C8010E944102C8010E94CB04C5CFC80142
:101960000E948801F8CFC8010E946E0460E0C8019F
:101970000E949004C8010E948104873E18F064E030
:1019800070E0C7CFC8010E947E04873EC0F762E0C6
:1019900071E0C8010E947604882329F010920201A8
:1019A00065E070E0B6CF63E071E0C8010E947104A9
:1019B000882389F21092030166E070E0AACF6FEFEE
:1019C000C8010E94100560E0C8010E949004C8018F
:1019D0000E944D0510920201BECF60E0C8010E9436
:1019E000900470E060E0C8010E94C8042FEF89E60F
:1019F00098E1215080409040E1F700C0000061E094
:101A000070E0C8010E94C80469E070E082CF70E015
:101A100060E0C8010E94980468E070E0C8010E947C
:101A20008A0460E0C8010E942F0695CFC8010E9479
:101A3000EA0391CF60E088CF97FB072E16F400945D
:101A400007D077FD09D00E94360D07FC05D03EF483
:101A5000909581959F4F0895709561957F4F08955A
:101A6000EE0FFF1F0590F491E02D0994AA1BBB1BFC
:101A700051E107C0AA1FBB1FA617B70710F0A61B8E
:101A8000B70B881F991F5A95A9F780959095BC01AF
:101A9000CD0108950E942D0E08F481E008950E9462
:101AA000630D0C94680E0E94610E58F00E945A0E4D
:101AB00040F029F45F3F29F00C94510E51110C9421
:101AC0009C0E0C94570E0E94790E68F39923B1F383
:101AD000552391F3951B550BBB27AA276217730754
:101AE000840738F09F5F5F4F220F331F441FAA1FE8
:101AF000A9F335D00E2E3AF0E0E832D091505040A4
:101B0000E695001CCAF72BD0FE2F29D0660F771F51
:101B1000881FBB1F261737074807AB07B0E809F037
:101B2000BB0B802DBF01FF2793585F4F3AF09E3FBC
:101B3000510578F00C94510E0C949C0E5F3FE4F329
:101B4000983ED4F3869577956795B795F7959F5FFF
:101B5000C9F7880F911D9695879597F90895E1E04B
:101B6000660F771F881FBB1F621773078407BA07AA
:101B700020F0621B730B840BBA0BEE1F88F7E09505
:101B800008950E94810E88F09F5798F0B92F9927E9
:101B9000B751B0F0E1F0660F771F881F991F1AF058
:101BA000BA95C9F714C0B13091F00E949B0EB1E014
:101BB00008950C949B0E672F782F8827B85F39F013
:101BC000B93FCCF3869577956795B395D9F73EF4F1
:101BD00090958095709561957F4F8F4F9F4F089599
:101BE000E89409C097FB3EF49095809570956195B7
:101BF0007F4F8F4F9F4F9923A9F0F92F96E9BB276D
:101C00009395F695879577956795B795F111F8CFE8
:101C1000FAF4BB0F11F460FF1BC06F5F7F4F8F4F53
:101C20009F4F16C0882311F096E911C0772321F049
:101C30009EE8872F762F05C0662371F096E8862FE1
:101C400070E060E02AF09A95660F771F881FDAF738
:101C5000880F9695879597F90895990F0008550F65
:101C6000AA0BE0E8FEEF16161706E807F907C0F022
:101C700012161306E407F50798F0621B730B840B2A
:101C8000950B39F40A2661F0232B242B252B21F404
:101C900008950A2609F4A140A6958FEF811D811DA4
:101CA000089597F99F6780E870E060E008959FEFDE
:101CB00080EC089500240A941616170618060906E3
:101CC000089500240A9412161306140605060895B2
:101CD000092E0394000C11F4882352F0BB0F40F43A
:101CE000BF2B11F460FF04C06F5F7F4F8F4F9F4F7A
:101CF000089557FD9058440F551F59F05F3F71F0FC
:101D00004795880F97FB991F61F09F3F79F0879562
:101D10000895121613061406551FF2CF4695F1DFEB
:101D200008C0161617061806991FF1CF869571057B
:101D3000610508940895E894BB2766277727CB01AF
:101D400097F908950E942D0E08F48FEF08950E94D0
:101D5000BA0E0C94680E0E945A0E38F00E94610E62
:101D600020F0952311F00C94510E0C94570E112471
:101D70000C949C0E0E94790E70F3959FC1F3950F01
:101D800050E0551F629FF001729FBB27F00DB11DFF
:101D9000639FAA27F00DB11DAA1F649F6627B00D8F
:101DA000A11D661F829F2227B00DA11D621F739F78
:101DB000B00DA11D621F839FA00D611D221F749F86
:101DC0003327A00D611D231F849F600D211D822FCD
:101DD000762F6A2F11249F5750409AF0F1F08823F4
:101DE0004AF0EE0FFF1FBB1F661F771F881F915021
:101DF0005040A9F79E3F510580F00C94510E0C9471
:101E00009C0E5F3FE4F3983ED4F3869577956795F3
:101E1000B795F795E7959F5FC1F7FE2B880F911D4A
:101E20009695879597F90895F894FFCF7E0C990CB5
:101E3000A80CB30CAF0CDF0CED0C070D160D1A0D32
:021E4000A00000
:00000001FF
